{
  "contractName": "CV",
  "abi": [
    {
      "constant": true,
      "inputs": [
        {
          "name": "",
          "type": "uint256"
        }
      ],
      "name": "ct",
      "outputs": [
        {
          "name": "id",
          "type": "uint256"
        },
        {
          "name": "hash",
          "type": "string"
        }
      ],
      "payable": false,
      "stateMutability": "view",
      "type": "function",
      "signature": "0x31523c42"
    },
    {
      "constant": true,
      "inputs": [],
      "name": "ctCount",
      "outputs": [
        {
          "name": "",
          "type": "uint256"
        }
      ],
      "payable": false,
      "stateMutability": "view",
      "type": "function",
      "signature": "0x7ffef2f9"
    },
    {
      "constant": false,
      "inputs": [
        {
          "name": "_hash",
          "type": "string"
        }
      ],
      "name": "addCT",
      "outputs": [],
      "payable": false,
      "stateMutability": "nonpayable",
      "type": "function",
      "signature": "0x5a971020"
    },
    {
      "constant": true,
      "inputs": [
        {
          "name": "inputHash",
          "type": "string"
        },
        {
          "name": "cid",
          "type": "uint256"
        }
      ],
      "name": "checker",
      "outputs": [
        {
          "name": "",
          "type": "bool"
        }
      ],
      "payable": false,
      "stateMutability": "view",
      "type": "function",
      "signature": "0xe1c3eacc"
    }
  ],
  "bytecode": "0x6080604052600060015534801561001557600080fd5b506105ee806100256000396000f3fe608060405260043610610062576000357c0100000000000000000000000000000000000000000000000000000000900463ffffffff16806331523c42146100675780635a971020146101225780637ffef2f9146101ea578063e1c3eacc14610215575b600080fd5b34801561007357600080fd5b506100a06004803603602081101561008a57600080fd5b81019080803590602001909291905050506102ff565b6040518083815260200180602001828103825283818151815260200191508051906020019080838360005b838110156100e65780820151818401526020810190506100cb565b50505050905090810190601f1680156101135780820380516001836020036101000a031916815260200191505b50935050505060405180910390f35b34801561012e57600080fd5b506101e86004803603602081101561014557600080fd5b810190808035906020019064010000000081111561016257600080fd5b82018360208201111561017457600080fd5b8035906020019184600183028401116401000000008311171561019657600080fd5b91908080601f016020809104026020016040519081016040528093929190818152602001838380828437600081840152601f19601f8201169050808301925050505050505091929192905050506103bb565b005b3480156101f657600080fd5b506101ff610425565b6040518082815260200191505060405180910390f35b34801561022157600080fd5b506102e56004803603604081101561023857600080fd5b810190808035906020019064010000000081111561025557600080fd5b82018360208201111561026757600080fd5b8035906020019184600183028401116401000000008311171561028957600080fd5b91908080601f016020809104026020016040519081016040528093929190818152602001838380828437600081840152601f19601f8201169050808301925050505050505091929192908035906020019092919050505061042b565b604051808215151515815260200191505060405180910390f35b6000602052806000526040600020600091509050806000015490806001018054600181600116156101000203166002900480601f0160208091040260200160405190810160405280929190818152602001828054600181600116156101000203166002900480156103b15780601f10610386576101008083540402835291602001916103b1565b820191906000526020600020905b81548152906001019060200180831161039457829003601f168201915b5050505050905082565b6001600081548092919060010191905055506040805190810160405280600154815260200182815250600080600154815260200190815260200160002060008201518160000155602082015181600101908051906020019061041e92919061051d565b5090505050565b60015481565b6000606083905060606000808581526020019081526020016000206001018054600181600116156101000203166002900480601f0160208091040260200160405190810160405280929190818152602001828054600181600116156101000203166002900480156104dd5780601f106104b2576101008083540402835291602001916104dd565b820191906000526020600020905b8154815290600101906020018083116104c057829003601f168201915b505050505090506060819050805183511415156105005760009350505050610517565b808051906020012083805190602001201493505050505b92915050565b828054600181600116156101000203166002900490600052602060002090601f016020900481019282601f1061055e57805160ff191683800117855561058c565b8280016001018555821561058c579182015b8281111561058b578251825591602001919060010190610570565b5b509050610599919061059d565b5090565b6105bf91905b808211156105bb5760008160009055506001016105a3565b5090565b9056fea165627a7a72305820214f8d0ea85143939cb7510256be07040a99442000e8fa40d7f504d7c0044d4c0029",
  "source": "pragma solidity ^0.5.0;\r\n\r\ncontract CV {\r\n    // Model a Candidate\r\n    struct certificate {\r\n        uint id;\r\n        string hash;\r\n    }\r\n\r\n    // Read/write candidates\r\n    mapping(uint => certificate) public ct;\r\n\r\n    // Store Candidates Count\r\n     uint public ctCount=0;\r\n\r\n    function addCT (string memory _hash) public {\r\n        ctCount ++;\r\n        ct[ctCount] = certificate(ctCount, _hash);\r\n        //return ctCount;\r\n    }\r\n    \r\n    \r\n    function checker(string memory inputHash, uint cid) public view returns(bool) {\r\n       // return (StringUtils.equal(inputHash,storedHash));\r\n        bytes memory _inputHash = bytes(inputHash);\r\n        string memory h = ct[cid].hash;\r\n        bytes memory _storedHash = bytes(h);\r\n        if (_inputHash.length != _storedHash.length){\r\n            return false;\r\n        }\r\n        else{\r\n            return keccak256(_inputHash) == keccak256(_storedHash);\r\n        }\r\n\r\n}\r\n}",
  "sourcePath": "C:/Users/Aashutosh Singh/Desktop/c2/contracts/CV.sol",
  "compiler": {
    "name": "solc",
    "version": "0.5.0+commit.1d4f565a.Emscripten.clang"
  },
  "schemaVersion": "3.0.0",
  "updatedAt": "2019-01-05T22:02:58.653Z",
  "devdoc": {
    "methods": {}
  },
  "userdoc": {
    "methods": {}
  }
}